:020000040800F2
:1000000008040020ED010008391000088F020008E4
:100010003510000889020008A11500080000000042
:10002000000000000000000000000000DF130008D6
:100030008D02000800000000DD130008E113000835
:10004000070200080702000807020008070200086C
:10005000070200080702000807020008070200085C
:10006000070200080702000807020008070200084C
:10007000070200080702000807020008070200083C
:1000800007020008000000005902000807020008EB
:10009000070200080702000807020008070200081C
:1000A000711500080702000807020008070200088F
:1000B00007020008070200080702000807020008FC
:1000C00007020008070200080702000807020008EC
:1000D00007020008070200080702000807020008DC
:1000E00007020008070200080702000807020008CC
:1000F00007020008070200080702000800000000CD
:1001000000000000070200080000000007020008CD
:1001100007020008000000000702000807020008AC
:10012000070200080702000807020008070200088B
:10013000070200080000000000000000070200089D
:10014000070200080702000800000000000000008D
:10015000000000000000000000000000000000009F
:10016000000000000000000000000000070200087E
:10017000070200080000000000000000000000006E
:10018000000000000702000800000000000000005E
:10019000000000000000000000000000000000005F
:1001A000000000000000000007020008070200082D
:1001B000070200080702000807020008000000000C
:1001C000000000000702000800000000000000001E
:1001D0000702000807020008DFF80CD000F02AF838
:1001E00000480047C515000808040020064880475D
:1001F00006480047FEE7FEE7FEE7FEE7FEE7FEE70C
:10020000FEE7FEE7FEE7FEE755150008D901000806
:10021000D2B201E000F8012B491EFBD27047002248
:10022000F6E710B513460A4604461946FFF7F0FFF5
:10023000204610BD064C074D06E0E06840F0010383
:1002400094E8070098471034AC42F6D3FFF7C8FF94
:100250007C1700089C17000800BF4FF0A040006802
:10026000C0F3800068B100BF04204FF0A0410860D7
:1002700000BF1020034949694140024A516100BF53
:1002800000BF70470008004800BFFEE7704700BF8E
:10029000FEE7000008B5002000904FF0A04000F0FD
:1002A000AEF8002857D100BF4FF0A04080682A491F
:1002B00008404FF0A041886000BF00BF084680683A
:1002C0002649084040F080504FF0A041886000BFB0
:1002D000234800682349B0FBF1F000EB80004000A8
:1002E0000A21B0FBF1F0009002E00098401E00905F
:1002F00000980028F9D17F204FF0A04189681A4A60
:100300001140C20711434FF0A042916000BF00BFEF
:1003100000BF16488068C00F0028F9D14020009027
:1003200002E00098401E009000980028F9D100BF1C
:100330004FF0A040806809490840401C4FF0A041A0
:10034000886000BF00BF00BF4FF0A040006800F011
:1003500001000028F7D008BDC0FFFF5FC0FFFF7F8E
:1003600004000020400D0300C0FFFF3F00010050CB
:100370002DE9F04105460C460026606800B100BF3B
:100380004FF0A04000F040F807460F4800F03CF85E
:100390000743AFB9606860B1D4E900010843A168C0
:1003A0000843E1680843A968084A11400843A86067
:1003B00007E0A8680549084021680843A86000E0F4
:1003C00001263046BDE8F08100010050E030C0FF5A
:1003D00070B505460C460026284600F015F858B9B9
:1003E000D4E900010843A1680843E9684CF2180207
:1003F00091430843E86000E00126304670BD0146A5
:10040000886800F0010070470146886800F001002C
:100410007047000070B505460C460026606800B1C4
:1004200000BF2846FFF7F0FF20BB606870B1A168ED
:1004300020680843E168084321690843616908436B
:10044000E9680E4A11400843E8600BE0E168206863
:1004500008432169084361690843E968074A114074
:100460000843E8606068296B21F00F0101432963AC
:1004700000BF00E00126304670BD00001CC0F0FF48
:1004800008B50549C96C0143034AD1641146C96CDA
:100490000140009100BF08BD0010024008B50549A9
:1004A000C96C0143034AD1641146C96C01400091F3
:1004B00000BF08BD0010024008B50549C96C0143E2
:1004C000034AD1641146C96C0140009100BF08BDC8
:1004D00000100240F0B503460A46106890FAA0F0FA
:1004E000B0FA80F47BE00125A540106800EA050120
:1004F000002973D050681D6891FAA1F6B6FA86F605
:1005000077000326BE40B54391FAA1F6B6FA86F607
:10051000760000FA06F635431D6000BF50680128DA
:1005200002D05068022814D190689D6891FAA1F613
:10053000B6FA86F677000326BE40B54391FAA1F6D7
:10054000B6FA86F6760000FA06F635439D6000BFDF
:1005500000BF1069DD6891FAA1F6B6FA86F6770059
:100560000326BE40B54391FAA1F6B6FA86F67600A8
:1005700000FA06F63543DD6000BF506802282DD131
:10058000FF2914D850691D6A91FAA1F6B6FA86F6C9
:10059000B7000F26BE40B54391FAA1F6B6FA86F62B
:1005A000B60000FA06F635431D6200BF16E050693A
:1005B0005D6A0E0A96FAA6F6B6FA86F6B7000F2618
:1005C000BE40B5430E0A96FAA6F6B6FA86F6B6000F
:1005D00000FA06F635435D6200BF00BF641C106878
:1005E000E04000287FF47FAF5068012802D05068B7
:1005F000022809D1D56810685E68864300FB05F7BC
:100600003E435E6000BF00BF0020F0BD81627047C6
:100610004FF47A71B0FBF1F2521E4FF0E0235A61B1
:1006200000229A6105221A6100BF70470349896858
:1006300021F0F0010143014A91607047001002402F
:1006400001490860704700000400002010B503460F
:100650000A460021147B21469068014321F4806002
:10066000546840EA040121F40060146840EA04017F
:1006700021F48050D48940EA040121F40050146927
:1006800040EA040121F48040D46A40EA040121F4E4
:100690000040D46A40EA04011648834202D016485A
:1006A000834209D121F47020546940EA040121F009
:1006B0008050946940EA04010E48834202D00E48FB
:1006C000834213D121F47000546A40EA040121F0FE
:1006D0008070D46940EA040121F00070146A40EA95
:1006E000040121F00050946A40EA0401596400209A
:1006F00010BD0000002C014000340140C16841F0F1
:100700008001C1607047000010B502461368294897
:1007100082420BD0B2F1804F08D02748824205D0E8
:100720002648824202D02648824204D123F070003B
:100730004C6840EA04031F48824214D0B2F1804F53
:1007400011D01D4882420ED01C4882420BD01C485A
:10075000824208D01B48824205D01B48824202D008
:100760001A48824204D123F44070CC6840EA040362
:1007700013608868D06200BF0888906200BF0D488F
:1007800082420BD00E48824208D00E48824205D0E9
:100790000D48824202D00D48824203D1086910639D
:1007A00000BF00BF00BF506940F00100506100BFB2
:1007B000002010BD002C0140000400400008004053
:1007C0000034014000400140004401400048014025
:1007D00070B50246012901D1002425E0042901D188
:1007E000012421E0102901D102241DE0402901D17A
:1007F000032419E0B1F5807F01D1042414E0B1F5A0
:10080000806F01D105240FE0B1F5805F01D106248E
:100810000AE0B1F5804F01D1072405E0B1F5803F32
:1008200001D1082400E009242346064CE55C02F1CE
:10083000180428190468044DEE5C0425B540AC4347
:10084000046070BD4A1700085417000870B50246CE
:10085000012901D1002425E0042901D1012421E04E
:10086000102901D102241DE0402901D1032419E0FF
:10087000B1F5807F01D1042414E0B1F5806F01D17E
:1008800005240FE0B1F5805F01D106240AE0B1F53F
:10089000804F01D1072405E0B1F5803F01D1082444
:1008A00000E009242346064CE55C02F118042819EF
:1008B0000468044DEE5C0825B5402C43046070BD0F
:1008C0004A170008541700082DE9F04106460C4667
:1008D00015460127B4F5805F21D007DC012C0CD030
:1008E000102C10D0B4F5807F2BD112E0B4F5803FEE
:1008F0001BD0B4F5801F24D11DE02946304600F0FE
:100900009DFB07461EE02946304600F0E9FB0746FE
:1009100018E02946304600F03BFC074612E0294625
:10092000304600F087FC07460CE02946304600F0D0
:10093000D3FC074606E02946304600F00FFD074687
:1009400000E000BF00BF3846BDE8F081816370471A
:100950002DE9F04194B000201190129013901821CD
:100960000BA8FFF75CFC00200790089009900A9004
:10097000182101A8FFF753FC4FF40050FFF78EFD3C
:100980000120FFF78BFD0120019003200290002041
:10099000059001A94FF09040FFF79CFD12217C4B80
:1009A0001B68C3F30220002425460346C3F1070C4D
:1009B000BCF1040F02D94FF0040C01E0C3F1070CA5
:1009C000674603F1040CBCF1070F02D24FF0000C94
:1009D00001E0A3F1030C66464FF0010C0CFA07FC92
:1009E000ACF1010C0CEA040C0CFA06FC4FF0010807
:1009F00008FA06F8A8F1010808EA05084CEA080216
:100A000000BF002904DB1007030E6248435407E0CF
:100A10001007040E5E480C3001F00F031B1FC45476
:100A200000BF1220002809DB00F01F0201219140C5
:100A30004209920002F1E022C2F8001100BF00203A
:100A400011901290139011A94FF0A040FFF7C0FC35
:100A50004FF4A8600B9000200C900D900E900F901A
:100A600010900BA94FF0A040FFF7D4FC00204A499A
:100A700009686FF30D0101434FF0A042C2F8C010A6
:100A80001146096921F4803108B1012200E00022F9
:100A900041EA02414FF0A042116100BF002011461F
:100AA000096940F20342914301434FF0A0421161B2
:100AB00000BF00BF10468068384908401146886072
:100AC00000BF00BF084680683549084040F08050AC
:100AD0001146886000BF00200790089007A93148A0
:100AE000FFF746FC4FF480604FF0A041C96821F445
:100AF000406101434FF0A042D16000BF00BF1046EB
:100B0000406840F004001146486000BF00BF08463E
:100B1000406820F00800486000BF0620224A01F12A
:100B20003004050A04EB85031C681F258540AC438F
:100B3000950E85402C431C6000BF1046002201F139
:100B40001404C0F3406504EB85031C68C0F304562D
:100B50000725B540AC43C0F3045502FA05F52C4314
:100B60001C6000BF7F210C4A103A1368C0F31202C8
:100B7000934301F018040D4AE240024013434FF042
:100B8000A042C2F8B03000BF14B0BDE8F081000050
:100B90000CED00E000E400E0C0000050C0FFFF5F8B
:100BA000C0FFFF7F0003005002003004FFFF07007A
:100BB00000B587B0182101A8FFF731FB0420FFF72B
:100BC0005FFC2020FFF75CFC0120FFF759FC0220AE
:100BD000FFF756FC10211148FFF718FD4FF4806114
:100BE0000E48FFF713FD1020019001200290002015
:100BF00003900490059001A90848FFF76BFC4FF49F
:100C000080600190012002900020039004900590E4
:100C100001A90248FFF75EFC07B000BD00080048CC
:100C20002DE9F041A0B014211BA8FFF7F8FA20210C
:100C300013A8FFF7F4FA302107A8FFF7F0FA1821FC
:100C400001A8FFF7ECFA4FF40060F249096E014386
:100C5000F04A11661146096E0140009100BF00BFC5
:100C60000420FFF729FC4FF400500190022002906D
:100C7000002003900120049000200590022006909F
:100C800001A9E548FFF726FC1821E44B1B68C3F3D4
:100C90000220002425460346C3F1070CBCF1040FD3
:100CA00002D94FF0040C01E0C3F1070C674603F1D1
:100CB000040CBCF1070F02D24FF0000C01E0A3F1CD
:100CC000030C66464FF0010C0CFA07FCACF1010C6A
:100CD0000CEA040C0CFA06FC4FF0010808FA06F8BE
:100CE000A8F1010808EA05084CEA080200BF00293B
:100CF00004DB1007030ECA48435407E01007040E34
:100D0000C6480C3001F00F031B1FC45400BF18204D
:100D1000002809DB00F01F020121914042099200E6
:100D200002F1E022C2F8001100BF4FF47A70ADF872
:100D30006C0020201C904FF47A701D9000201E90B3
:100D40001F901BA9B748FFF7DFFC00BFB54800683C
:100D500020F08000B349086000BF00208968B24AD3
:100D600011400143AF4A916000BF4FF47A701D906B
:100D700001211046FFF76AFD6020139000201490B7
:100D80001590FA20169000201790189019901A903C
:100D900013AA0121A348FFF797FD0121A148FFF7FE
:100DA00017FD4FF47A701D9010219E48FFF74EFDFD
:100DB0000020149015904FF4FA70169013AA102189
:100DC0009848FFF781FD10219648FFF701FD4FF489
:100DD0007A701D904FF480719248FFF737FD002024
:100DE0001490159040F2EE20169013AA4FF48071E3
:100DF0008C48FFF769FD4FF480718A48FFF7E8FCE3
:100E00004FF47A701D904FF480518648FFF71EFD15
:100E10000020149015904FF4FA701690002018904E
:100E200013AA4FF480517F48FFF74EFD4FF48051D5
:100E30007C48FFF7CDFC4FF47A701D904FF4801181
:100E40007848FFF703FD00201490159040F2EE2043
:100E5000169013AA4FF480117248FFF735FD4FF436
:100E600080117048FFF7B4FC00206E49896821F0BA
:100E70000801020F41EAC2016A4A91601146496EB7
:100E800021F4E0210143516600BF00BF1046806895
:100E900020F480401146886000BF002001460246D1
:100EA000604B9B6823F43F4440EA010313431C4317
:100EB0005C4B9C6000BF00BF194649685B4A11400B
:100EC00001431A46516000BF4FF440001146496883
:100ED00021F470010143516000BF00BF10468068DB
:100EE00020F080001146886000BF002201201346D8
:100EF00001F16005AC18256890FAA0F6B6FA86F6FE
:100F000006F01F074602BE40B54390FAA0F6B6FAB7
:100F100086F606F01F0603FA06F63543256000BF85
:100F200000200790089009908DF828008814ADF8EB
:100F30002A0040000B9000200C900D900E904FF076
:100F400000700F90002010901190129007A9354862
:100F5000FFF77CFB0420FFF7AFFA0120FFF7ACFAA4
:100F60000220FFF7A9FA0120019002200290002040
:100F70000390049005900220069001A92648FFF7EF
:100F8000A9FA02200190029000200390049005909D
:100F90000220069001A92048FFF79CFA0420019046
:100FA00002200290002003900490059002200690F9
:100FB00001A91948FFF78EFA8020019002200290C3
:100FC00000200390049005900620069001A94FF0A0
:100FD0009040FFF77FFA012001900220029000204C
:100FE0000390049005900620069001A91048FFF791
:100FF00071FA022001900290002003900490059065
:101000000620069001A90A48FFF764FA20B0BDE85F
:10101000F081000000100240000800480CED00E0E4
:1010200000E400E0002C0140F8BFFEFF8FFFFFFD51
:101030000004004800BFFEE77047000070B502469C
:10104000106A20F001001062136A5568946924F058
:1010500003041D4E04EA06000E6840EA060423F06D
:1010600002000E6940EA060323F001004E6840EAE0
:101070000603164882420BD01548824208D0154814
:10108000824205D01448824202D01448824213D1D1
:1010900023F008004E6940EA860323F004008E68BE
:1010A00040EA860325F480708E6940EA060525F43F
:1010B0000070CE6940EA460555609461C868506387
:1010C00000BF1362002070BD8FFFFEFF002C0140A7
:1010D000003401400040014000440140004801400C
:1010E0002DE9F04104460D46206A20F010002062F0
:1010F000266AD4F80480A76927F440771E48384050
:10110000296840EA012726F02000296940EA0116F3
:1011100026F01000696840EA0116184884420BD096
:101120001748844208D01748844205D016488442A4
:1011300002D01648844213D126F08000696940EA43
:10114000811626F04000A96840EA811628F48060E4
:10115000A96940EA810828F40060E96940EAC10809
:10116000C4F80480A7612046E968FFF7EFFB266218
:101170000020BDE8F0810000FF8FFFFE002C014041
:10118000003401400040014000440140004801405B
:1011900070B50246106A20F480701062136A5568B8
:1011A000D46924F003041D4E04EA06000E6840EAE8
:1011B000060423F400700E6940EA062323F48070CD
:1011C0004E6840EA0623164882420BD015488242F8
:1011D00008D01548824205D01448824202D01448F3
:1011E000824213D123F400604E6940EA862323F43F
:1011F00080608E6840EA862325F480508E6940EA3C
:10120000061525F40050CE6940EA46155560D461B4
:10121000C868D06300BF1362002070BD8FFFFEFF5F
:10122000002C0140003401400040014000440140D6
:101230000048014070B50246106A20F480501062E8
:10124000136A5568D46924F440741D4820400E6820
:1012500040EA062423F400500E6940EA063323F4E2
:1012600080504E6840EA0633164882420BD016483A
:10127000824208D01548824205D01548824202D0E9
:101280001448824213D123F400404E6940EA863369
:1012900023F480408E6840EA863325F480408E69CE
:1012A00040EA861525F40040CE6940EAC61555602F
:1012B000D461C868106400BF1362002070BD0000D4
:1012C000FF8FFFFE002C0140003401400040014030
:1012D000004401400048014030B50246106A20F445
:1012E00080301062136A146D164D04EA05000D6813
:1012F00040EA050423F400300D8A40EA054323F454
:1013000080308D8840EA05430F4882420BD00F4859
:10131000824208D00E48824205D00E48824202D056
:101320000D48824206D1506820F480308D6940EA31
:10133000052050601465C868956C906400BF136206
:10134000002030BD8FFFFEFF002C01400034014023
:1013500000400140004401400048014030B50246D1
:10136000106A20F480101062136A146D1548204032
:101370000D6840EA052423F400100D8A40EA055365
:1013800023F480108D8840EA05530F4882420BD029
:101390000E48824208D00E48824205D00D48824253
:1013A00002D00D48824206D1506820F480208D6919
:1013B00040EA852050601465C868D06400BF13629D
:1013C000002030BDFF8FFFFE002C014000340140A3
:1013D0000040014000440140004801407047704710
:1013E0007047000070B508205249096821F00F01CC
:1013F0000143504A116000BF00BF4F48006820F40D
:1014000080704D498039C1F8800000BF00BF4B4853
:10141000006840F480704949086000BF00BF00BF09
:1014200046480068C0F380200028F8D04020434997
:10143000496821F0FE4141EA0061404A516000BF25
:10144000022030215522002340EA010444EA02240C
:101450001C433A4DED683A4E35402C43374DEC6015
:1014600000BF00BF2846C06840F080702946C860B1
:1014700000BF00BF0846006840F08070086000BFF1
:1014800000BF00BF2D480068C0F340600028F8D0BE
:1014900003202A49896821F003010143274A91600A
:1014A00000BF8020FFF7C2F800BF00BF234880685C
:1014B00000F00C000C28F8D12248006840F0807041
:1014C000204908602048006840F001001E4908607B
:1014D0000020486000BF1C4840686428FBD30020FF
:1014E000FFF7A4F800201549896821F4E061014361
:1014F000124A916000BF00BF1146896821F4605113
:101500000143916000BF1148FFF782F80F48FFF7D1
:1015100097F80F48094988310968030C03229A405B
:101520009143C2B2030C9A401143044AC2F8881096
:1015300000BF70BD002002408070004000100240DB
:101540000C80FFF9FCED00E0001000E080FE210AB5
:1015500002001C000548006840F470000349086060
:101560004FF00060014980390860704788ED00E065
:1015700000BF0A480069C0F3C01068B100BF6FF037
:1015800080000649086100BF00BF0846C06820F01F
:101590008000C86000BF00BF70470000002C014001
:1015A00000BFFEE702E008C8121F08C1002AFAD1F6
:1015B00070477047002001E001C1121F002AFBD1D3
:1015C0007047000008B501205549096E0143544A8F
:1015D00011661146096E0140009100BF00BF00076F
:1015E0001146896D014391651146896D0140009155
:1015F00000BF00BF032002464A4B19684FF6FF03A5
:101600001940494B0B4343EA0221464B196000BF86
:1016100000BF4648806840F480404449886000BF6D
:10162000FFF7E0FEFFF7C4FAFFF7FAFAFFF790F9C9
:101630003F484049096A01433E4A116200BF00BF6A
:101640001046406C40F480401146486400BF00BF23
:101650000846006840F00100086000BF00BF08466F
:10166000406940F00100486100BF0846FFF746F8B6
:10167000FEF710FE4FF0A040FEF7C1FE012827D173
:1016800000BF4FF0A0408068C0F3400000BB00BF27
:101690004FF0A0408068C0F38000C8B900BF4FF091
:1016A000A040806824490840001D4FF0A041886098
:1016B00000BF00BF0846406840F00400486000BF1B
:1016C00000BF0846406820F00800486000BF00BF27
:1016D00025E01A48007828B94FF4806018498862DC
:1016E00000BF05E04FF480601549886100BF00BF6E
:1016F00000BF10480069C0F3C01048B900BF0D48D2
:10170000C068C0F3C01050B90A48FEF7F7FF06E002
:1017100000BF6FF080000749086100BF00BFD8E735
:10172000001002400CED00E00000FA0500700040DF
:1017300055151000002C0140C0FFFF7F0000002065
:1017400000080048081C3044586C000000000404E5
:1017500004043838000008000000080000080000F9
:10176000080000000800000000020406080A0C0E31
:1017700010140001020304050607080A9C1700085C
:101780000000002008000000A4150008A4170008AD
:101790000800002000040000B4150008000000004C
:0417A0000024F4002D
:04000005080001D915
:00000001FF
