:020000040800F2
:1000000008040020ED010008F11000089B02000820
:10001000ED100008950200086D16000800000000B1
:10002000000000000000000000000000971400081D
:1000300099020008000000009514000899140008B7
:10004000070200080702000807020008070200086C
:10005000070200080702000807020008070200085C
:10006000070200080702000807020008070200084C
:10007000070200080702000807020008070200083C
:1000800007020008000000005902000807020008EB
:10009000070200080702000807020008070200081C
:1000A00029160008070200080702000807020008D6
:1000B00007020008070200080702000807020008FC
:1000C00007020008070200080702000807020008EC
:1000D00007020008070200080702000807020008DC
:1000E00007020008070200080702000807020008CC
:1000F00007020008070200080702000800000000CD
:1001000000000000070200080000000007020008CD
:1001100007020008000000000702000807020008AC
:10012000070200080702000807020008070200088B
:10013000070200080000000000000000070200089D
:10014000070200080702000800000000000000008D
:10015000000000000000000000000000000000009F
:10016000000000000000000000000000070200087E
:10017000070200080000000000000000000000006E
:10018000000000000702000800000000000000005E
:10019000000000000000000000000000000000005F
:1001A000000000000000000007020008070200082D
:1001B000070200080702000807020008000000000C
:1001C000000000000702000800000000000000001E
:1001D0000702000807020008DFF80CD000F02AF838
:1001E0000048004791160008080400200648804790
:1001F00006480047FEE7FEE7FEE7FEE7FEE7FEE70C
:10020000FEE7FEE7FEE7FEE70D160008D90100084D
:10021000D2B201E000F8012B491EFBD27047002248
:10022000F6E710B513460A4604461946FFF7F0FFF5
:10023000204610BD064C074D06E0E06840F0010383
:1002400094E8070098471034AC42F6D3FFF7C8FF94
:1002500084180008A418000810B500BF4FF0A04093
:100260000068C0F3800088B100BF04204FF0A041B7
:10027000086000BF1021064800F0D2F910200449A0
:10028000886100BF1021024800F0CAF910BD0000CB
:100290000008004800BFFEE7704700BFFEE700000F
:1002A00008B5002000904FF0A04000F0AEF8002804
:1002B00057D100BF4FF0A04080682A4908404FF056
:1002C000A041886000BF00BF0846806826490840FA
:1002D00040F080504FF0A041886000BF2348006884
:1002E0002349B0FBF1F000EB800040000A21B0FB95
:1002F000F1F0009002E00098401E00900098002865
:10030000F9D17F204FF0A04189681A4A1140C207F5
:1003100011434FF0A042916000BF00BF00BF1648DC
:100320008068C00F0028F9D14020009002E00098BA
:10033000401E009000980028F9D100BF4FF0A04067
:10034000806809490840401C4FF0A041886000BF08
:1003500000BF00BF4FF0A040006800F0010000287F
:10036000F7D008BDC0FFFF5FC0FFFF7F0400002083
:10037000400D0300C0FFFF3F000100502DE9F04198
:1003800005460C460026606800B100BF4FF0A04053
:1003900000F040F807460F4800F03CF80743AFB9BB
:1003A000606860B1D4E900010843A1680843E168CE
:1003B0000843A968084A11400843A86007E0A868F4
:1003C0000549084021680843A86000E0012630463E
:1003D000BDE8F08100010050E030C0FF70B5054677
:1003E0000C460026284600F015F858B9D4E900015B
:1003F0000843A1680843E9684CF218029143084396
:10040000E86000E00126304670BD0146886800F0D3
:10041000010070470146886800F001007047000045
:1004200070B505460C460026606800B100BF28463E
:10043000FFF7F0FF20BB606870B1A1682068084337
:10044000E16808432169084361690843E9680E4A85
:1004500011400843E8600BE0E16820680843216927
:10046000084361690843E968074A11400843E860A6
:100470006068296B21F00F010143296300BF00E090
:100480000126304670BD00001CC0F0FF08B50549CC
:10049000C96C0143034AD1641146C96C0140009103
:1004A00000BF08BD0010024008B50549C96C0143F2
:1004B000034AD1641146C96C0140009100BF08BDD8
:1004C0000010024008B50549C96C0143034AD164D4
:1004D0001146C96C0140009100BF08BD00100240E8
:1004E000F0B503460A46106890FAA0F0B0FA80F41E
:1004F0007BE00125A540106800EA0501002973D0C2
:1005000050681D6891FAA1F6B6FA86F677000326C0
:10051000BE40B54391FAA1F6B6FA86F6760000FA27
:1005200006F635431D6000BF5068012802D05068B0
:10053000022814D190689D6891FAA1F6B6FA86F661
:1005400077000326BE40B54391FAA1F6B6FA86F6C7
:10055000760000FA06F635439D6000BF00BF1069C3
:10056000DD6891FAA1F6B6FA86F677000326BE405A
:10057000B54391FAA1F6B6FA86F6760000FA06F6C9
:100580003543DD6000BF506802282DD1FF2914D803
:1005900050691D6A91FAA1F6B6FA86F6B7000F26E1
:1005A000BE40B54391FAA1F6B6FA86F6B60000FA57
:1005B00006F635431D6200BF16E050695D6A0E0AFB
:1005C00096FAA6F6B6FA86F6B7000F26BE40B543F1
:1005D0000E0A96FAA6F6B6FA86F6B60000FA06F6FF
:1005E00035435D6200BF00BF641C1068E040002816
:1005F0007FF47FAF5068012802D05068022809D1EB
:10060000D56810685E68864300FB05F73E435E6070
:1006100000BF00BF0020F0BD81627047816270475B
:1006200081627047816170474FF47A71B0FBF1F2DB
:10063000521E4FF0E0235A6100229A6105221A618E
:1006400000BF70470349896821F0F0010143014A66
:100650009160704700100240014908607047000037
:100660000400002010B503460A460021147B2146F1
:100670009068014321F48060546840EA040121F449
:100680000060146840EA040121F48050D48940EAF3
:10069000040121F40050146940EA040121F480406F
:1006A000D46A40EA040121F40040D46A40EA04011B
:1006B0001648834202D01648834209D121F47020A3
:1006C000546940EA040121F08050946940EA040131
:1006D0000E48834202D00E48834213D121F47000A9
:1006E000546A40EA040121F08070D46940EA0401B0
:1006F00021F00070146A40EA040121F00050946A6D
:1007000040EA04015964002010BD0000002C0140A3
:1007100000340140C16821F08001C1607047C168A8
:1007200041F08001C160704710B502461368294846
:1007300082420BD0B2F1804F08D02748824205D0C8
:100740002648824202D02648824204D123F070001B
:100750004C6840EA04031F48824214D0B2F1804F33
:1007600011D01D4882420ED01C4882420BD01C483A
:10077000824208D01B48824205D01B48824202D0E8
:100780001A48824204D123F44070CC6840EA040342
:1007900013608868D06200BF0888906200BF0D486F
:1007A00082420BD00E48824208D00E48824205D0C9
:1007B0000D48824202D00D48824203D1086910637D
:1007C00000BF00BF00BF506940F00100506100BF92
:1007D000002010BD002C0140000400400008004033
:1007E0000034014000400140004401400048014005
:1007F00001460869C0F3C01070470146C868C0F3DD
:10080000C010704770B50246012901D1002425E0CF
:10081000042901D1012421E0102901D102241DE085
:10082000402901D1032419E0B1F5807F01D10424CE
:1008300014E0B1F5806F01D105240FE0B1F5805FC0
:1008400001D106240AE0B1F5804F01D1072405E06B
:10085000B1F5803F01D1082400E009242346064C6D
:10086000E55C02F1180428190468044DEE5C0425C7
:10087000B540AC43046070BD521800085C18000815
:1008800070B50246012901D1002425E0042901D1D7
:10089000012421E0102901D102241DE0402901D1C9
:1008A000032419E0B1F5807F01D1042414E0B1F5EF
:1008B000806F01D105240FE0B1F5805F01D10624DE
:1008C0000AE0B1F5804F01D1072405E0B1F5803F82
:1008D00001D1082400E009242346064CE55C02F11E
:1008E000180428190468044DEE5C0825B5402C4313
:1008F000046070BD521800085C1800082DE9F04132
:1009000006460C4615460127B4F5805F21D007DC6A
:10091000012C0CD0102C10D0B4F5807F2BD112E01C
:10092000B4F5803F1BD0B4F5801F24D11DE02946CB
:10093000304600F0DFFB07461EE02946304600F057
:100940002BFC074618E02946304600F07DFC0746A0
:1009500012E02946304600F0C9FC07460CE0294663
:10096000304600F015FD074606E02946304600F007
:1009700051FD074600E000BF00BF3846BDE8F081EA
:1009800081637047F0B500F160056C18256892FA34
:10099000A2F6B6FA86F606F01F074FF40076BE40C0
:1009A000B54392FAA2F6B6FA86F606F01F0603FAE7
:1009B00006F635432560F0BD2DE9F04194B00020E6
:1009C00011901290139018210BA8FFF728FC00201B
:1009D0000790089009900A90182101A8FFF71FFCC2
:1009E0004FF40050FFF760FD0120FFF75DFD01208F
:1009F0000190032002900020059001A94FF0904043
:100A0000FFF76EFD12217C4B1B68C3F3022000240C
:100A100025460346C3F1070CBCF1040F02D94FF081
:100A2000040C01E0C3F1070C674603F1040CBCF1B0
:100A3000070F02D24FF0000C01E0A3F1030C664651
:100A40004FF0010C0CFA07FCACF1010C0CEA040CA1
:100A50000CFA06FC4FF0010808FA06F8A8F10108A4
:100A600008EA05084CEA080200BF002904DB100769
:100A7000030E6248435407E01007040E5E480C3032
:100A800001F00F031B1FC45400BF1220002809DB14
:100A900000F01F02012191404209920002F1E02280
:100AA000C2F8001100BF002011901290139011A9FC
:100AB0004FF0A040FFF792FC4FF4A8600B9000208D
:100AC0000C900D900E900F9010900BA94FF0A0403D
:100AD000FFF7A6FC00204A4909686FF30D010143A6
:100AE0004FF0A042C2F8C0101146096921F48031CC
:100AF00008B1012200E0002241EA02414FF0A04289
:100B0000116100BF00201146096940F20342914380
:100B100001434FF0A042116100BF00BF1046806842
:100B2000384908401146886000BF00BF0846806809
:100B30003549084040F080501146886000BF0020D1
:100B40000790089007A93148FFF718FC4FF4806020
:100B50004FF0A041C96821F4406101434FF0A04229
:100B6000D16000BF00BF1046406840F0040011464D
:100B7000486000BF00BF0846406820F00800486099
:100B800000BF0620224A01F13004050A04EB850368
:100B90001C681F258540AC43950E85402C431C6086
:100BA00000BF1046002201F11404C0F3406504EBBD
:100BB00085031C68C0F304560725B540AC43C0F359
:100BC000045502FA05F52C431C6000BF7F210C4A36
:100BD000103A1368C0F31202934301F018040D4A4F
:100BE000E240024013434FF0A042C2F8B03000BFD1
:100BF00014B0BDE8F08100000CED00E000E400E07E
:100C0000C0000050C0FFFF5FC0FFFF7F0003005027
:100C100002003004FFFF070000B587B0182101A8CB
:100C2000FFF7FDFA0420FFF731FC2020FFF72EFC30
:100C30000120FFF72BFC0220FFF728FC10211148B0
:100C4000FFF7ECFC4FF480610E48FFF7E7FC102043
:100C5000019001200290002003900490059001A9CA
:100C60000848FFF73DFC4FF480600190012002909E
:100C7000002003900490059001A90248FFF730FC82
:100C800007B000BD000800482DE9F041A0B01421D4
:100C90001BA8FFF7C4FA202113A8FFF7C0FA3021E0
:100CA00007A8FFF7BCFA182101A8FFF7B8FA4FF41C
:100CB0000060FE49096E0143FC4A11661146096E47
:100CC0000140009100BF00BF0420FFF7FBFB4FF481
:100CD0000050019002200290002003900120049017
:100CE000002005900220069001A9F148FFF7F8FBCB
:100CF000082001900220029000200390012004901F
:100D0000002005900620069001A9E948FFF7E8FBBE
:100D10001821E84B1B68C3F3022000242546034634
:100D2000C3F1070CBCF1040F02D94FF0040C01E031
:100D3000C3F1070C674603F1040CBCF1070F02D2A4
:100D40004FF0000C01E0A3F1030C66464FF0010CDC
:100D50000CFA07FCACF1010C0CEA040C0CFA06FCD2
:100D60004FF0010808FA06F8A8F1010808EA05089A
:100D70004CEA080200BF002904DB1007030ECE482E
:100D8000435407E01007040ECA480C3001F00F036B
:100D90001B1FC45400BF1820002809DB00F01F02ED
:100DA000012191404209920002F1E022C2F80011B3
:100DB00000BF4FF47A70ADF86C0020201C904FF407
:100DC0007A701D9000201E901F901BA9BB48FFF752
:100DD000ABFC00BFB948006820F08000B74908604C
:100DE00000BF00208968B64A11400143B34A9160B0
:100DF00000BF4FF47A701D9001211046FFF740FDAF
:100E000060201390002014901590FA201690002076
:100E10001790189019901A9013AA0121A748FFF76C
:100E20006DFD0121A548FFF7EDFC4FF47A701D9090
:100E30001021A248FFF724FD0020149015904FF4D4
:100E4000FA70169013AA10219C48FFF757FD102145
:100E50009A48FFF7D7FC4FF47A701D904FF48071D9
:100E60009648FFF70DFD00201490159040F2EE20FB
:100E7000169013AA4FF480719048FFF73FFD4FF48E
:100E800080718E48FFF7BEFC4FF47A701D904FF4CE
:100E900080518A48FFF7F4FC7020139000201490D2
:100EA00015904FF4FA7016900020189013AA4FF482
:100EB00080518248FFF722FD4FF480517F48FFF7B1
:100EC000A1FC4FF47A701D904FF480317B48FFF7FE
:100ED000D7FC602013900020149015904FF4FA7006
:100EE000169013AA4FF480317448FFF707FD4FF4B2
:100EF00080317248FFF786FC4FF47A701D904FF4F2
:100F000080116E48FFF7BCFC7020139000201490F5
:100F1000159040F2EE20169013AA4FF48011674806
:100F2000FFF7ECFC4FF480116448FFF76BFC0020E6
:100F30006249896821F00801020F41EAC2015F4A53
:100F400091601146496E21F4E0210143516600BFD2
:100F500000BF1046806820F480401146886000BFC2
:100F6000002001460246554B9B6823F43F4440EA6B
:100F7000010313431C43514B9C6000BF00BF194643
:100F80004968504A114001431A46516000BF4FF46E
:100F900040001146496821F470010143516000BFCF
:100FA00000BF1046806820F080001146886000BFB6
:100FB0000023012219464148FFF7E4FC00230122E7
:100FC00004213E48FFF7DEFC4FF40060079040101C
:100FD0000890002009908DF828004FF48050ADF85B
:100FE0002A0040000B9000200C900D904FF0807074
:100FF0000E9040000F90002010901190129007A9C1
:101000002E48FFF72FFB0420FFF75CFA0120FFF7C3
:1010100059FA0220FFF756FA0120019002200290AF
:1010200000200390049005900220069001A920481A
:10103000FFF756FA022001900290002003900490DE
:1010400005900220069001A91948FFF749FA0420EB
:10105000019002200290002003900490059002204D
:10106000069001A91248FFF73BFA80200190022068
:10107000029000200390049005900620069001A99C
:101080004FF09040FFF72CFA0120019002200290CF
:1010900000200390049005900620069001A90A48BC
:1010A000FFF71EFA0220019002900FE000100240AC
:1010B000000800480CED00E000E400E0002C0140D6
:1010C000F8BFFEFF8FFFFFFD0004004800200390E3
:1010D000049005900620069001A90348FFF700FA46
:1010E00020B0BDE8F08100000004004800BFFEE72A
:1010F0007047000070B50246106A20F001001062CF
:10110000136A5568946924F003041D4E04EA06002E
:101110000E6840EA060423F002000E6940EA060366
:1011200023F001004E6840EA0603164882420BD0C5
:101130001548824208D01548824205D014488242A0
:1011400002D01448824213D123F008004E6940EACD
:10115000860323F004008E6840EA860325F480703D
:101160008E6940EA060525F40070CE6940EA46051E
:1011700055609461C868506300BF1362002070BD61
:101180008FFFFEFF002C0140003401400040014071
:1011900000440140004801402DE9F04104460D465D
:1011A000206A20F010002062266AD4F80480A76923
:1011B00027F440771E483840296840EA012726F086
:1011C0002000296940EA011626F01000696840EA0B
:1011D0000116184884420BD01748844208D017489B
:1011E000844205D01648844202D01648844213D166
:1011F00026F08000696940EA811626F04000A9685F
:1012000040EA811628F48060A96940EA810828F440
:101210000060E96940EAC108C4F80480A76120467B
:10122000E968FFF7ADFB26620020BDE8F081000011
:10123000FF8FFFFE002C01400034014000400140C0
:10124000004401400048014070B50246106A20F495
:1012500080701062136A5568D46924F003041D4E2F
:1012600004EA06000E6840EA060423F400700E69E2
:1012700040EA062323F480704E6840EA06231648AD
:1012800082420BD01548824208D01548824205D0D0
:101290001448824202D01448824213D123F40060E1
:1012A0004E6940EA862323F480608E6840EA8623F4
:1012B00025F480508E6940EA061525F40050CE6969
:1012C00040EA46155560D461C868D06300BF136218
:1012D000002070BD8FFFFEFF002C01400034014054
:1012E00000400140004401400048014070B5024602
:1012F000106A20F480501062136A5568D46924F48F
:1013000040741D4820400E6840EA062423F4005033
:101310000E6940EA063323F480504E6840EA0633F3
:10132000164882420BD01648824208D015488242A5
:1013300005D01548824202D01448824213D123F4CA
:1013400000404E6940EA863323F480408E6840EACC
:10135000863325F480408E6940EA861525F40040E6
:10136000CE6940EAC6155560D461C868106400BFF4
:101370001362002070BD0000FF8FFFFE002C0140B3
:101380000034014000400140004401400048014059
:1013900030B50246106A20F480301062136A146D72
:1013A000164D04EA05000D6840EA050423F40030F8
:1013B0000D8A40EA054323F480308D8840EA0543D6
:1013C0000F4882420BD00F48824208D00E4882421A
:1013D00005D00E48824202D00D48824206D15068A4
:1013E00020F480308D6940EA052050601465C8689B
:1013F000956C906400BF1362002030BD8FFFFEFF2C
:10140000002C0140003401400040014000440140F4
:101410000048014030B50246106A20F48010106286
:10142000136A146D154820400D6840EA052423F422
:1014300000100D8A40EA055323F480108D8840EA9D
:1014400005530F4882420BD00E48824208D00E4806
:10145000824205D00D48824202D00D48824206D118
:10146000506820F480208D6940EA85205060146522
:10147000C868D06400BF1362002030BDFF8FFFFE3C
:10148000002C014000340140004001400044014074
:1014900000480140704770477047000070B5082051
:1014A0005249096821F00F010143504A116000BF01
:1014B00000BF4F48006820F480704D498039C1F862
:1014C000800000BF00BF4B48006840F4807049496D
:1014D000086000BF00BF00BF46480068C0F380201E
:1014E0000028F8D040204349496821F0FE4141EAF4
:1014F0000061404A516000BF022030215522002384
:1015000040EA010444EA02241C433A4DED683A4E95
:1015100035402C43374DEC6000BF00BF2846C06803
:1015200040F080702946C86000BF00BF08460068D0
:1015300040F08070086000BF00BF00BF2D48006809
:10154000C0F340600028F8D003202A49896821F0C0
:1015500003010143274A916000BF8020FFF772F822
:1015600000BF00BF2348806800F00C000C28F8D1B1
:101570002248006840F080702049086020480068D8
:1015800040F001001E4908600020486000BF1C4870
:1015900040686428FBD30020FFF754F80020154969
:1015A000896821F4E0610143124A916000BF00BFE5
:1015B0001146896821F460510143916000BF1148D0
:1015C000FFF732F80F48FFF747F80F48094988310D
:1015D0000968030C03229A409143C2B2030C9A405B
:1015E0001143044AC2F8881000BF70BD00200240B9
:1015F00080700040001002400C80FFF9FCED00E01C
:10160000001000E080FE210A02001C00054800686E
:1016100040F47000034908604FF0006001498039D0
:101620000860704788ED00E010B500BF0E48006903
:10163000C0F3C01040B100BF6FF080000A490861DC
:1016400000BF0846FFF766F800BF07480069C0F30F
:10165000002040B100BF6FF480700349086100BFF3
:101660000846FFF757F810BD002C014000BFFEE709
:1016700002E008C8121F08C1002AFAD1704770475B
:10168000002001E001C1121F002AFBD170470000B9
:1016900008B501206349096E0143624A116611468B
:1016A000096E0140009100BF00BF00071146896D1F
:1016B000014391651146896D0140009100BF00BF53
:1016C00003200246584B19684FF6FF031940574B49
:1016D0000B4343EA0221544B196000BF00BF54483A
:1016E000806840F480405249886000BFFFF7D6FE12
:1016F000FFF792FAFFF7C8FAFFF75EF94D484E4937
:10170000096A01434C4A116200BF00BF1046406C99
:1017100040F480401146486400BF00BF084600689E
:1017200040F00100086000BF00BF0846406940F07B
:101730000100486100BF0846FEF7F1FFFEF7B0FD6B
:101740004FF0A040FEF761FE012827D100BF4FF007
:10175000A0408068C0F3400000BB00BF4FF0A04035
:101760008068C0F38000C8B900BF4FF0A040806817
:1017700032490840001D4FF0A041886000BF00BF03
:101780000846406840F00400486000BF00BF0846BB
:10179000406820F00800486000BF00BF41E02848D2
:1017A000007828B94FF480612648FEF735FF04E041
:1017B0004FF480612348FEF735FF2348007820B9B5
:1017C00010212048FEF728FF03E010211D48FEF7F6
:1017D00029FF1948FFF70CF840B91748FFF70DF833
:1017E00001280AD01448FEF79AFF06E000BF6FF008
:1017F00080001149086100BF00BF0F48FEF7F8FFE5
:1018000040B90D48FEF7F9FF01280AD00A48FEF753
:1018100086FF06E000BF6FF080000749086100BF47
:1018200000BFBCE7001002400CED00E00000FA052C
:101830000070004055151000002C0140C0FFFF7FD4
:10184000000000200008004801000020081C30446F
:10185000586C00000000040404043838000008003C
:101860000000080000080000080000000800000058
:1018700000020406080A0C0E1014000102030405FD
:101880000607080AA418000800000020080000004D
:1018900070160008AC1800080800002000040000C2
:0C18A00080160008000000000024F40086
:04000005080001D915
:00000001FF
